:040A9C00026D0000E7
:100DC500C2AF1211DED2AF0012123A1211BB1211CC
:100DD500FA1211CD7F0A7E00121062120F26300022
:100DE50002C2007B007A00796D7D277C00120C58C9
:100DF500EF60E81202E21211311212241207D71223
:0D0E05000E12121245BF02D312057E80CEE0
:10090400A2AF92D5C2AF75C7AA75C755439F01A2BE
:10091400D592AF75A630E4F5A775AF04A2AF92D512
:10092400C2AF75C7AA75C75543A401A2D592AFAF8C
:10093400AE75A631F5A7A2AF92D5C2AF75C7AA7599
:10094400C75543A401A2D592AFADAEA2AF92D5C212
:10095400AF75C7AA75C755539FFEA2D592AFEF25B1
:10096400E0FFE433FEED54017C002FFFEC3EFE7407
:10097400F12FFF74FF3EFEEF5401FDEEC313EF139E
:1009840075C7AA75C755F58475C7AA75C7558D85EA
:010994002240
:100EE500A2AF92D5C2AF75C7AA75C755439720A2C1
:100EF500D592AFA2AF92D5C2AF75C7AA75C75553E4
:100F0500977FA2D592AFA2AF92D5C2AF75C7AA758A
:100F1500C7555397BFA2D592AFE59630E5FB0209B9
:010F250004C7
:0F11DE00120EE5121118121088120E5F02103750
:0100210022BC
:100E5F00E4F5B1F5B2F5B3F5B4F5ACF5AD53B1DFDB
:100E6F0043B22043B32053B4DF53B1FE43B2015317
:100E7F00B3FE43B40153B3FD43B40243B10853B2BD
:100E8F00F743B38053B47F43AC0153ADFE53B3EF7D
:040E9F0043B4102226
:030AA000016700EB
:101118005389F0438901758CF8E4F58A438E08D227
:09112800A953B7FDD2B9D28C2203
:100C58001206F3B56908E568B5F0037F0022D201F2
:100C6800856831856932C2011206F3FFAEF0D3956B
:100C780032EE9531401474FF9FFF74FF9EFEE532FB
:100C88002FF534E5313EF53380111206F3FFAEF04F
:100C9800C3E5329FF534E5319EF533C3E5349DE570
:100CA800339C400BE5318532F012071E7F01227F0D
:010CB800003B
:010CB9002218
:03000B00020FA53C
:040FA500C0E0C0D018
:100FA90074F8258CF58CC28DD20030010405678058
:100FB900180569E56970020568E567600C2569F53A
:090FC90069E43568F568756700FC
:050FD200D0D0D0E03298
:1010880053E8F043E80543B11053B2EFE4F5F643F3
:0E109800F62043E101D2EFD2EEF56FF57022A3
:05123000AE6FAF70225B
:100F260030EF3CC2EFAFC3EF75F010A4FFAEF0E5B3
:100F3600C2540FFDEF4D2570F570EE356FF56FC39A
:100F460013F56FE57013F57053E8F043E80543B108
:0F0F56001053B2EFE4F5F643F62043E101D2EE7B
:010F65002269
:03002300020B8449
:100B8400C0E0C0F0C083C082C0D075D000C000C037
:100B940001C002C003C004C005C006C007C0913034
:100BA4009807C298AF99120B17309923C299E53E62
:100BB400654F6019AF3E743F2FF8E6F599D20205F0
:100BC4003EE53EC394104007753E008002C202D049
:100BD40091D007D006D005D004D003D002D001D0E4
:0C0BE40000D0D0D082D083D0F0D0E0321E
:1010370053B1BF53B2BF759850438920438780434C
:101047008E1053C4DF758DF7D28E53B7EFC2BCC273
:0B10570099D2ACC202E4F54FF53E2236
:08000300C2998F993099FD228A
:100F6600E54FD3953E4007E54F953EFE800FE54F92
:100F7600C3953E5008C37410953E254FFEBE0F0321
:100F86007F0122AD4F743F2DF8A607054FE54FC3ED
:0E0F960094104003E4F54F200202D2997F0030
:010FA400222A
:0D11ED00AC07AF04120F66EF70F8AF0422DC
:100AA300011D00011E00011300011C000216001DA0
:060AB3000114000112FF16
:1011CD00121037E4F515F51AF51BC203F519F518CC
:0111DD0022EF
:100B1700E4F51AF51BE51514601014602024027023
:100B270058EF64FB7056751501228F08E4F509AE7E
:100B3700090509740A2EF8A60775150222AE0905DC
:100B470009740A2EF8A607E509C39508402EE4FFA5
:100B5700FEE50814FDEEC39D500A740A2EF8E62F31
:100B6700FF0E80ED740A2EF8E6B5070B7B007A00BE
:0C0B7700790DAF0C1204428000E4F5156B
:010B8300224F
:06086F008B348A35893646
:10087500E4FE90001574FBF0E5382404A3F02EFE89
:10088500A3E539F02EFEA3EFF02EFEE4F53AE53AA6
:10089500C39538E495375031AB340536E536AA357E
:1008A5007002053514F912068BFF7419253AF58285
:1008B500E43400F583EFF07419253AF582E4340049
:1008C500F583E02EFE053A80C574192538F582E4D6
:1008D5003400F583EEF0E4F53AE5382405FFE43518
:1008E50037FEC3E53A9FE49E50147415253AF58208
:0E08F500E43400F583E0FF120F66053A80DB65
:0109030022D1
:06122400120BF00210C4E1
:060442008B218A228923B0
:10044800EF1470030204E814700302050914700322
:100458000204EB14700302057A2404600302057D8C
:10046800E5196401700302057DAB21AA22A92312B4
:10047800068BB4051BE51DB40103E4F51DE51C60FE
:100488000302057D751C01855153755102FF804D8E
:10049800AB21AA22A92312068BFFB40314E51E7010
:1004A80003751E01E51C6401702EF51C85535180EF
:1004B80027EFB40414E51EB40106E4F516F5172277
:1004C800E51E7014751D01800FEFB4010BE51EB415
:1004D8000103E4F51E751301E4F516F5170210A6DD
:1004E80002123EAB21AA22A92312068BB40104757D
:1004F800190122E519B401057F011211A5E4F519C6
:1005080022D203AB21AA22A9239000011206A4FD3E
:1005180012068BFFED900004CFF0A3EFF0900002DD
:100528001206A4FE9000031206A4FDEDFF9000063B
:10053800EEF0A3EFF07534017535007536027B01D6
:100548007A007900120EA3900004E0FEA3E0FF9069
:100558000000E0B50619A3E0B50714900006E0FE18
:10056800A3E0FF900002E06E7003A3E06F60060254
:050578000FD712121B59
:01057D00225B
:1010C400E5156018051BE51B7002051AC39432E58B
:0D10D4001A94004007E4F51AF51BF51522EB
:06122A00C203E4F51822E6
:100BF0002003610512E512C39464405BE4F51275AD
:100C000034017535007536137B017A007911120EA7
:100C1000A3900011E0FCA3E0FDEC90000DF0EDA32B
:100C2000F0900013E0FCA3E0FDEC90000FF0EDA3CA
:100C3000F07B017A00790D7537007538047539013C
:100C40007F0112086F0518E518D3940A4009E4F5EE
:070C50001802123EE4F51842
:010C5700227A
:101149007531017B007A0079317537007538017581
:071159003901E4FF02086FF9
:101160007531027B007A0079317537007538017569
:071170003901E4FF02086FE2
:10117700751F037B007A00791F7537007538017575
:071187003901E4FF02086FCB
:10118E007573047B007A00797375370075380175B5
:07119E003901E4FF02086FB4
:10000E007B007A007931E4F537F5387539017F02D6
:03001E0002086F66
:03124200AF1922BF
:0210FD00AC063F
:1010FF008C31EFF5327B007A007931753700753816
:09110F00027539017F0302086F2B
:060AB900015900015A0082
:0C11FA00C285E4F55BC204F55CF55D22E3
:03124500AF5B227A
:031248008F5B2297
:03124B0002114944
:1002E200E55B1470030203741470030203E024023A
:1002F2006003020441E565B401193095030204412B
:10030200E4F565F519755901E55A60030204417572
:100312005A0122309545055DE55D7002055CC39486
:1003220014E55C94005003020441E4F55CF55DD2EF
:1003320085D294F51C755B01D204F558208306F52D
:100342005CF55D8006755C00755DC8308303020450
:1003520041E4F55AF56BF551F55422D3E55D94006D
:10036200E55C94005003020441E55D155D700215E1
:100372005C22055DE55D7002055CC394C8E55C9492
:10038200005003020441E4F55CF55DE55814601D7C
:1003920014602A1460371460342404703EC29075CD
:1003A2005401E4F56BF551D280D291802ED290C2E5
:1003B20080755101E4F56BF554D291801ED290D232
:1003C20080C291756B01E4F551F554800E755B02A4
:1003D20012122A7F011210A612000E055822309521
:1003E2002020045B055DE55D7002055CC394F4E5C5
:1003F2005C9401404AE4F55CF55D121160E4F55548
:1004020022200426C3E55D9403E55C9400401DE5CB
:100412005D942CE55C94015013E4F55CF55D1212D9
:100422004B755501E51C64018002C204D3E55D945D
:1004320000E55C94004008E55D155D7002155C22E4
:100ABF000155014100250042002600004100280099
:100ACF004100290041002A0041002B0041002C0069
:100ADF0042002D000041002F004100300041003145
:090AEF0000410032004100330017
:1011BB007557FFE4F556F552F554F550F551855139
:0211CB005322AD
:100D7200900025E004F0E0C394284046E4F012120B
:100D820030EEC4F854F0C868FEEFC4540F48FF9028
:100D92000027E02FF0900026E03EF0900028E004CB
:100DA200F0E0C39408401BE4F0900026E0FEA3E0CC
:100DB2007803CEC313CE13D8F9F557E4900026F08A
:020DC200A3F09C
:010DC400220C
:03124E00AF562276
:10002600121245EF6401605C208318E490002AF008
:10003600900029E004F0E0C39432401AE4F07556CB
:10004600018013E4900029F0A3E004F0E0C39432A9
:100056004004E4F0F556309717E490002CF0900039
:100066002BE004F0E0C39432401AE4F0F552801419
:10007600E490002BF0A3E004F0E0C394324005E4E2
:10008600F0755201E556640160030201A3121245A0
:10009600EF6402600B121245EF640170030202E185
:1000A600E55264017078E55B700BC285F56B75519E
:1000B60001F5548076121242BF0113E51CB4010308
:1000C600E4F51CE4F56B755101F55402019BE51C42
:1000D600B40118755301E51DB40105E4F5518039E5
:1000E600E51D7035755102F51E802E7551010517F7
:1000F600E51770020516C3941DE5169400401A759F
:10010600160075171DE51DB4010475510122756BA6
:1001160001755101E4F51EF51DE4F5548077E55BA4
:10012600700EC285F56BF551755401F555C29422D2
:10013600121242BF010FE51CB40103E4F51CE4F5FD
:100146006BF551804DE51CB4011BE4F55375540164
:10015600E51DB40105E4F551803BE51D7037755189
:1001660002F51E8030E4F5510517E51770020516F5
:10017600C3941DE5169400401975160075171DE504
:100186001D64016010756B01755401E4F51EF51DC3
:100196008003755401E490002DF0A3F0221212455D
:1001A600EF640260030202E1E4F552E51CB40105C6
:1001B600E4F5538003E4F551E557D394874075E49D
:1001C600F55490002DF0A3F0121242BF0110E51C69
:1001D600B40103E4F51CE4F56BF554F5512205175B
:1001E600E51770020516C3941DE516940050030228
:1001F60002E175160075171DE51C64016017E51D03
:10020600B4010122E51D60030202E1756B01F5519F
:10021600F51EF51D22E51C640160030202E1E51DE1
:10022600B40104E4F55122E51D60030202E17551B3
:1002360002F51E22E557C3948340030202E112121F
:1002460042BF0111E51CB40103E4F51CE4F56BF5AE
:1002560051F55480517554020517E51770020516BD
:10026600C3941DE5169400403D75160075171DE5EF
:100276001C64016019E51DB4010475540222E51DD4
:100286007024755402756B01F51EF51D8018E51C6A
:10029600B40113E51DB40105E4F5518009E51D70AF
:1002A60005755102F51E90002FE004F0E0C394C8D6
:1002B6004029E4F090002EE004F0700690002DE056
:1002C60004F0C390002EE0948490002DE094034047
:0B02D6000AE4F0A3F012116012123EC7
:0102E10022FA
:1011A500BF010FE51CB40103E4F51C756B01E4F503
:0611B5005122E4F56B225B
:10099500E55414601514601B24027038D290E4905D
:1009A5000030F090003204F0802AC290E4900030CC
:1009B500F0801D900030E004F0E0C394644015E43D
:1009C500F0900032E07006D29004F08007C290E407
:1009D500900032F0E55114601414601A2402703648
:1009E500D280E4900031F090003304F022C280E41C
:1009F500900031F0801C900031E004F0E0C3946475
:100A05004014E4F0900033E07005D28004F022C277
:060A150080E4900033F0C4
:010A1B0022B8
:10113100120D72120026121245EF6402600612129D
:081141004EBF010312099522C3
:0C0AF800016500420034000002630000B1
:04123A00E4F566224F
:04123E0075660122AE
:1007D700E56664016003020867900035E004F07085
:1007E70006900034E004F0C3900035E094C8900010
:1007F70034E094004071E4F0A3F0C294F566D2901F
:10080700D280D291C285FB7A0079637D867C011202
:100817000C587B007A0079637D4E7C00120C58EFF0
:1008270070F0208323900035E004F07006900034C8
:10083700E004F0C3900035E09464900034E0940045
:1008470040D0E4F0A3F08009E4900034F0A3F080F6
:10085700C1C285E4FF121248E565700B7565012278
:07086700E4900034F0A3F05F
:01086E002267
:0912120005A6E5A6700205A7225D
:060CBA008B398A3A893BE8
:100CC000A2AF92D5C2AF75C7AA75C755439F01A2FF
:100CD000D592AFEFF5A68EA775AF40E4F53DE53DA3
:100CE000C3953C501EE4F5AE121008AB39AA3AA9E0
:100CF0003B853D82758300E5AE1206D112121205C6
:100D00003D80DBA2AF92D5C2AF75C7AA75C7555358
:060D10009FFEA2D592AF88
:010D160022BA
:060A1C008B268A278928C1
:100A2200A2AF92D5C2AF75C7AA75C755439F01A29F
:100A3200D592AFA2AF92D5C2AF75C7AA75C75543BB
:100A4200A502A2D592AFEFF5A68EA775AF61E4F528
:100A52002AE52AC39529501BAB26AA27A928852A4D
:100A6200827583001206A4F5AE1210081212120546
:100A72002A80DEA2AF92D5C2AF75C7AA75C75553F9
:100A8200A5FDA2D592AFA2AF92D5C2AF75C7AA7586
:090A9200C755539FFEA2D592AF97
:010A9B002238
:100D1700A2AF92D5C2AF75C7AA75C755439F01A2A7
:100D2700D592AFA2AF92D5C2AF75C7AA75C75543C3
:100D3700A502A2D592AF75AEFF75AF62EFF5A68E8D
:100D4700A7121008A2AF92D5C2AF75C7AA75C7552B
:100D570053A5FDA2D592AFA2AF92D5C2AF75C7AAD0
:0B0D670075C755539FFEA2D592AF2226
:10100800A2AF92D5C2AF75C7AA75C75543A401A2AE
:10101800D592AFE59F44BFFFBF0113A2AF92D5C2DF
:0F102800AF75C7AA75C755539FBFA2D592AF2208
:060EA3008B318A32893315
:100EA9007B017A007915753C057F807E0B120CBA9F
:100EB900900016E0FEA3E0FDEDFFAB31AA32A933A5
:100EC900EE8FF012071E900018E0FEA3E0FDEDFF83
:0C0ED900AB34AA35A936EE8FF002071EDC
:100FD7009000087401F0E4A3F0A3F0A3F0A3F07F5E
:100FE700807E0B120D177B017A0079087529057F22
:100FF700807E0B120A1C75C7AA75C755759F82801C
:01100700FEEA
:070B0400016C004100360006
:05123500E4FF0210A619
:1010A6008F6BEF24FB600C047013756C1EE56A7081
:0E10B6000C8007756CBEE56A7003756A062231
:10057E00E56B14602114604114605C146079147092
:10058E00030206612405600302068AD291E4F56C2B
:10059E0090003604F022E513B40116056CE56CC329
:1005AE0094C8500302068AE4F56CF513C291020654
:1005BE0086C291E4F56C020686056CE56CC3942840
:1005CE00500302068AE4F56C900036E070030206D2
:1005DE0079D291E4020686056CE56CC394C850038B
:1005EE0002068AE4F56C900036E07005D29104F0B4
:1005FE0022C291E4020686E51D64017030E51C649A
:10060E0001702AE5517075056CE56CC39428406C39
:10061E00E4F56CE56A600F156A900036E0700280B2
:10062E004AD291E48052D291E4F51D804B056CE5DF
:10063E006CC394284046E4F56CE56A600F156A9029
:10064E000036E070028024D291E4802CD291E4F541
:10065E001D8025056CE56CC394C84020E4F56CE55F
:10066E006A6012156A900036E07005C29104F0229D
:0C067E00D291E48003D291E4900036F0A9
:01068A00224D
:09121B00C2947571007572642221
:1010E100D3E5729400E57194004010E572157270B9
:0C10F100021571E57245717002D2942264
:0B0B0B00025E000002600000016200BA
:100E1200055FE55F7002055EC39419E55E940040CC
:100E22003BE4F55EF55F121230EF2561F561EE35B8
:100E320060F5600562E562C394104020E4F562E566
:100E420060C4F854F0C868F560E561C4540F48F511
:0C0E520061FFAE601210FDE4F560F56178
:010E5E002271
:0C1206000E7D020000DDFEDFF8DEF622A7
:101062008E318F32E4F533F534C3E5349532E5330E
:10107200953150117FE87E031212060534E5347073
:06108200E8053380E422C2
:0300000002073DB7
:10073D00787FE4F6D8FD9000007FFF7E03E4F0A300
:0A074D00DFFCDEFA758173020792EB
:10075700020DC5E493A3F8E493A34003F68001F2E6
:1007670008DFF48029E493A3F85407240CC8C333A3
:10077700C4540F4420C8834004F456800146F6DF72
:10078700E4800B0102040810204080900A9CE47E5C
:10079700019360BCA3FF543F30E509541FFEE49367
:1007A700A360010ECF54C025E060A840B8E493A32E
:1007B700FAE493A3F8E493A3C8C582C8CAC583CA59
:1007C700F0A3C8C582C8CAC583CADFE9DEE780BE11
:010B160000DE
:10068B00BB010689828A83E0225002E722BBFE026D
:09069B00E32289828A83E49322A0
:1006A400BB010CE58229F582E5833AF583E022500B
:1006B40006E92582F8E622BBFE06E92582F8E22255
:0D06C400E58229F582E5833AF583E493226F
:1006D100F8BB010DE58229F582E5833AF583E8F05F
:1006E100225006E92582C8F622BBFE05E92582C80B
:0206F100F222F3
:1006F300BB010A89828A83E0F5F0A3E022500687D2
:10070300F009E71922BBFE07E3F5F009E319228993
:0B071300828A83E493F5F074019322C6
:10071E00BB010A89828A83F0E5F0A3F0225006F726
:0F072E0009A7F01922BBFE06F3E5F009F3192223
:00000001FF
