:04093B000266000050
:100C7900C2AF1212011212B1121282120026D2AFA1
:100C890012125F12128B12127C12123812122C12CB
:100C99001210121287120F22300002C2007B007A52
:100CA9000079667D277C00120B04EF60E81203953A
:100CB90012116812083312127012070E120D7A12ED
:070CC9001131120FFF80CE74
:1007A200A2AF92D5C2AF75C7AA75C755439F01A222
:1007B200D592AF75A630E4F5A775AF04A2AF92D576
:1007C200C2AF75C7AA75C75543A401A2D592AFAFF0
:1007D200AE75A631F5A7A2AF92D5C2AF75C7AA75FD
:1007E200C75543A401A2D592AFADAEA2AF92D5C276
:1007F200AF75C7AA75C755539FFEA2D592AFEF2515
:10080200E0FFE433FEED54017C002FFFEC3EFE746A
:10081200F12FFF74FF3EFEEF5401FDEEC313EF1301
:1008220075C7AA75C755F58475C7AA75C7558D854D
:0108320022A3
:100E9E00A2AF92D5C2AF75C7AA75C755439720A208
:100EAE00D592AFA2AF92D5C2AF75C7AA75C755532B
:100EBE00977FA2D592AFA2AF92D5C2AF75C7AA75D2
:100ECE00C7555397BFA2D592AFE596542060FA024C
:020EDE0007A269
:0F120100120E9E1211821210D8120DC502105F2C
:0100210022BC
:100DC500E4F5B1F5B2F5B3F5B4F5ACF5AD53B1DF76
:100DD50043B22043B32053B4DF53B1FE43B20153B2
:100DE500B1FD43B20253B3FE43B40153B3FD43B463
:100DF5000243B10853B2F743B38053B47F43AC0108
:0A0E050053ADFE53B3EF43B41022C7
:03093F000157005D
:101182005389F0438901758CF8E4F58A438E08D2BD
:09119200A953B7FDD2B9D28C2299
:100B0400120594B55908E558B5F0037F0022D201C7
:100B1400855831855932C201120594FFAEF0D39540
:100B240032EE9531401474FF9FFF74FF9EFEE53250
:100B34002FF534E5313EF5338011120594FFAEF004
:100B4400C3E5329FF534E5319EF533C3E5349DE5C5
:100B5400339C400BE5318532F01205BF7F01227FC3
:010B64000090
:010B6500226D
:03000B00020F9C45
:040F9C00C0E0C0D021
:100FA00074F8258CF58CC28DD20030010405578071
:100FB000180559E55970020558E557600C2559F593
:090FC00059E43558F55875570045
:050FC900D0D0D0E032A1
:1010D80053E8F043E80543B11053B2EFE4F5F643A3
:0E10E800F62043E101D2EFD2EEF568F5692261
:05000600AE68AF6922A5
:100F220030EF3CC2EFAFC3EF75F010A4FFAEF0E5B7
:100F3200C2540FFDEF4D2569F569EE3568F568C3BA
:100F420013F568E56913F56953E8F043E80543B121
:0F0F52001053B2EFE4F5F643F62043E101D2EE7F
:010F6100226D
:030023000209B619
:1009B600C0E0C0F0C083C082C0D075D000C000C007
:1009C60001C002C003C004C005C006C007C0913004
:1009D6009807C298AF99120A97309928C299E508E4
:1009E6006519601EAF0874092FF8E6F599D202055D
:1009F60008AF08C3EF941074809480400775080010
:100A06008002C202D091D007D006D005D004D00310
:100A1600D002D001D000D0D0D082D083D0F0D0E0A8
:010A2600329D
:10105F0053B1BF53B2BF7598504389204387804324
:10106F008E1053C4DF758DF7D28E53B7EFC2BCC24B
:0B107F0099D2ACC202E4F519F508227A
:08126800C2998F993099FD2213
:100E5800E519D395084007E5199508FE800FE519AF
:100E6800C395085008C3741095082519FEEE640F41
:100E780070037F0122AD1974092DF8A6070519AF73
:100E880019EFC39410748094804003E4F51920028C
:050E980002D2997F0069
:010E9D002232
:0D121F00AC07AF04120E58EF70F8AF0422B8
:060942000146000144FF24
:0F12100012105FE4F545F548F549C203F5472292
:100A9700E4F548F549E54514601014602024027018
:100AA70058EF64FB7056754501228F3AE4F53BAE6B
:100AB7003B053B743C2EF8A60775450222AE3B0565
:100AC7003B743C2EF8A607E53BC3953A402EE4FF5E
:100AD700FEE53A14FDEEC39D500A743C2EF8E62F4E
:100AE700FF0E80ED743C2EF8E6B5070B7B007A000D
:0C0AF700793FAF3E12003E8000E4F54560
:010B030022CF
:060678008B338A34893542
:10067E00E4FE90000D74FBF0E5372404A3F02EFE8B
:10068E00A3E538F02EFEA3EFF02EFEE4F539E539A2
:10069E00C39537E495365031AB330535E535AA347D
:1006AE007002053414F912052CFF74112539F582E8
:1006BE00E43400F583EFF074112539F582E434004B
:1006CE00F583E02EFE053980C574112537F5827449
:1006DE00003536F583EEF0E4F539E5372405FFE411
:1006EE003536FEC3E5399FE49E5014740D2539F559
:0F06FE0082E43400F583E0FF120E58053980DBEB
:01070D0022C9
:0612700012018B021114B3
:06003E008B218A228923B8
:10004400EFB40700400302018A900054F828287393
:100054000200690200C00200C302013402013A0234
:10006400014B020158AB21AA22A92312052C1460CA
:100074002D04600302018A900001120545146011E9
:100084001460121460132403600302018AE4FF80E5
:100094000A7F0180067F0280027F0302124DAB219A
:1000A400AA22A92390000112054514600A046003E2
:1000B40002018AE4FF80027F0102125602128FD2EB
:1000C40003AB21AA22A923900001120545FD1205C4
:1000D4002CFFED900004CFF0A3EFF0900002120586
:1000E40045FE900003120545FDEDFF900006EEF07D
:1000F400A3EFF07527017528007529027B017A00AA
:100104007900120EE0900004E0FEA3E0FF900000EE
:10011400E0B50619A3E0B50714900006E0FEA3E0DD
:10012400FF900002E06E7003A3E06F6059020FCEEF
:10013400E4F54602125FAB21AA22A92312052CF58D
:1001440046640170418009AB21AA22A92312052C1F
:10015400FF02108AAB21AA22A92312052C64017084
:1001640002800DAB21AA22A92312052C640270047B
:100174007F01800FAB21AA22A92312052C640370EE
:06018400057F031210F6D6
:01018A002252
:10111400E54560180549E54970020548C39432E580
:0D1124004894004007E4F548F549F54522E0
:06127600C203E4F547226B
:100A27002003690544C3E544946474809480405F5F
:100A3700E4F54475270175280075292E7B017A0096
:100A4700792C120EE090002CE0FCA3E0FDEC900066
:100A570028F0EDA3F090002EE0FCA3E0FDEC900061
:100A67002AF0EDA3F07B017A0079287536007537F7
:100A7700047538017F011206780547D3E547940AC4
:0F0A8700748094804009E4F54702128FE4F5472C
:010A9600223D
:03129300AF462241
:10119B007531017B007A0079317536007537017531
:0711AB003801E4FF020678A1
:1011B2007531027B007A0079317536007537017519
:0711C2003801E4FF0206788A
:10000E007B007A007931E4F536F5377538017F02D9
:03001E000206785F
:1011C9008F317B007A0079317536007537017538B2
:0611D900017F030206780D
:02114D00AC06EE
:10114F008C6AEFF56B7B007A00796A75360075371C
:09115F00027538017F04020678D4
:0C122C00C285E4F55AC204F55BF55C22B3
:03129600AF5A222A
:031299008F5A2247
:03129C0002119BA1
:10039500E55A14605814607924026003020475124A
:1003A50012A2EF64017009755A021212B1D28522A8
:1003B500309523055CE55C7002055BC39414E55B31
:1003C50094005003020475E4F55BF55CD285755A1B
:1003D50001D2040212B1D3E55C9400E55B940050B0
:1003E50003020475E55C155C7002155B22C291C2BF
:1003F50081C280C290055CE55C7002055BC394F424
:10040500E55B9401406AE4F55BF55C755A020212FE
:1004150076309525200459055CE55C7002055BC3C3
:1004250094F4E55B94014048E4F55BF55C1212A297
:10043500EF703D1211B202128F20041FC3E55C94C8
:1004450003E55B94004016E55C942CE55B94015054
:100455000CE4F55BF55C12129C8002C204D3E55CEA
:100465009400E55B94004008E55C155C7002155B43
:010475002264
:1009480041001D0042001E0000410020004100211E
:1009580000410022004100230041002400420025FC
:0609680000004100270021
:0B1238007552FFE4F551F54FF5502210
:100BC30090001DE004F0E0C3942874809480404AB0
:100BD300E4F0120006EEC4F854F0C868FEEFC45403
:100BE3000F48FF90001FE02FF090001EE03EF090B2
:100BF3000020E004F0E0C3940874809480401BE478
:100C0300F090001EE0FEA3E07803CEC313CE13D80A
:0A0C1300F9F552E490001EF0A3F082
:010C1D0022B4
:03129F00AF50222B
:0312A200AF512227
:10029D0020831FE4900022F0900021E004F0E0C3E1
:1002AD009432748094804021E4F075510112000E57
:1002BD008017E4900021F0A3E004F0E0C3943274C1
:1002CD008094804004E4F0F55130971BE4900024B5
:1002DD00F0900023E004F0E0C394327480948040E9
:1002ED001EE4F0F54F8018E4900023F0A3E004F035
:1002FD00E0C39432748094804005E4F0754F01E5BD
:10030D005164017015FF1212ABE54F640170047F4B
:10031D000180027F021212A88017E4F54FFF12121E
:10032D00A8D3E552948774809480400FE4FF121295
:10033D00ABE4900025F0A3F0F55022C3E552948371
:10034D007480948050417F021212AB755001900061
:10035D0027E004F0E0C394C8748094804029E4F051
:10036D00900026E004F07006900025E004F0C390A4
:10037D000026E09408900025E09407400AE4F0A3DD
:07038D00F01211B212128FF1
:010394002246
:10116800120BC312029D121296EF6402600812124B
:0A117800A2EF640170031204762256
:10096E00410038004100390041003A0041003BFF90
:04128700E4F55F2209
:0312A500AF5F2216
:1008330020B01CE4900039F0900038E004F0E0C3ED
:100843009432748094804022E4F0755F01801BE44D
:10085300900038F0A3E004F0E0C3943274809480F5
:100863004008E4F0F55FFF1210F690003BE0655F8F
:10087300600CE55FF0640170057F011211C9E55F4B
:100883006401702A90003AE004F0E0C394C87480D5
:1008930094804023E4F0055EE55E7002055D9408F4
:1008A300E55D94074011E4F55DF55E0211B2E49055
:0708B300003AF0F55DF55E6F
:0108BA00221B
:09097E0042003C00000260000090
:04128B00E4F5622202
:04128F007562012261
:10070E00E5626401600302079A90003DE004F07018
:10071E000690003CE004F0C390003DE094C89000C9
:10072E003CE09400406DE4F0A3F0F562D291D281EA
:10073E00D280D290C2851212B47B007A0079607D8D
:10074E00867C01120B047B007A0079607D4E7C0062
:10075E00120B04EF70F020832390003DE004F07044
:10076E000690003CE004F0C390003DE094649000DD
:10077E003CE0940040D0E4F0A3F08009E490003C0B
:10078E00F0A3F080C1D2857F02021299E490003C62
:03079E00F0A3F0D5
:0107A1002235
:0A12430005A6AFA6EF700205A72272
:060B66008B2C8A2D892E64
:100B6C00A2AF92D5C2AF75C7AA75C755439F01A254
:100B7C00D592AFEFF5A68EA775AF40E4F530E53012
:100B8C00C3952F501EE4F5AE121030AB2CAA2DA934
:100B9C002E853082758300E5AE1205721212430564
:100BAC003080DBA2AF92D5C2AF75C7AA75C75553BB
:060BBC009FFEA2D592AFDE
:010BC2002210
:0608BB008B268A27892824
:1008C100A2AF92D5C2AF75C7AA75C755439F01A202
:1008D100D592AFA2AF92D5C2AF75C7AA75C755431E
:1008E100A502A2D592AFEFF5A68EA775AF61E4F58B
:1008F1002AE52AC39529501BAB26AA27A928852AB0
:1009010082758300120545F5AE12103012124305AF
:100911002A80DEA2AF92D5C2AF75C7AA75C755535B
:10092100A5FDA2D592AFA2AF92D5C2AF75C7AA75E8
:09093100C755539FFEA2D592AFF9
:01093A00229A
:100C1E00A2AF92D5C2AF75C7AA75C755439F01A2A1
:100C2E00D592AFA2AF92D5C2AF75C7AA75C75543BD
:100C3E00A502A2D592AF75AEFF75AF62EFF5A68E87
:100C4E00A7121030A2AF92D5C2AF75C7AA75C755FD
:100C5E0053A5FDA2D592AFA2AF92D5C2AF75C7AACA
:0B0C6E0075C755539FFEA2D592AF2220
:10103000A2AF92D5C2AF75C7AA75C75543A401A286
:10104000D592AFE59F44BF64017013A2AF92D5C2A1
:0F105000AF75C7AA75C755539FBFA2D592AF22E0
:060EE0008B248A258926FF
:100EE6007B017A007908752F057F807E0B120B66D1
:100EF600900009E0FEA3E0FDEDFFAB24AA25A9269C
:100F0600EE8FF01205BF90000BE0FEA3E0FDEDFFB3
:0C0F1600AB27AA28A929EE8FF00205BF26
:100FCE009000087401F0E4A3F0A3F0A3F0A3F07F67
:100FDE00807E0B120C1E7B017A0079087529057F25
:100FEE00807E0B1208BB75C7AA75C755759F828088
:010FFE00FEF4
:100987004100300041003100410032004100330096
:100997004100340041003500410036004100370076
:1011DF00D291D281E4F51BF51AF51EF51FF51CF51A
:0211EF001D22BF
:0312A8008F1A2278
:0312AB008F1B2274
:10047600121293EF600302052B121296EF640260CC
:100486000302052B1212A5EF64017005D291D281E9
:1004960022E51D451C70F5E51B14601514601B2430
:1004A60002703CD291E4900030F090003204F0806B
:1004B6002EC291E4900030F08021900030E004F0EC
:1004C600E0C39464748094804015E4F0900032E0B8
:1004D6007006D29104F08007C291E4900032F0E5F4
:1004E6001A14601414601A2402703AD281E490003F
:1004F60031F090003304F022C281E4900031F080A4
:1005060020900031E004F0E0C3946474809480404D
:1005160014E4F0900033E07005D28104F022C28129
:05052600E4900033F039
:01052B0022AD
:09124D008F1F751C01751D902214
:091256008F1E751C01751D90220C
:10018B00121293EF600302029C121296EF6402604C
:10019B000302029C1212A5EF64017005D290D2806B
:1001AB00221212A2EF6401600812129FEF64017019
:1001BB000EE51D451C60E5E51D151D7002151CE5C2
:1001CB001E14601814601E14603A2403705BD290E6
:1001DB00E4900034F090003604F0804DC290E4902F
:1001EB000034F08040900034E004F0E0C3941974C4
:1001FB008094804034E4F0900036E07002801DC2A1
:10020B0090E48021900034E004F0E0C394647480A7
:10021B0094804015E4F0900036E07006D29004F024
:10022B008007C290E4900036F0E51F14601714604D
:10023B001D14603924037059D280E4900035F0907E
:10024B00003704F022C280E4900035F0803F90002C
:10025B0035E004F0E0C39419748094804033E4F0EB
:10026B00900037E07002801DC280E4802090003542
:10027B00E004F0E0C39464748094804014E4F09044
:10028B000037E07005D28004F022C280E490003782
:01029B00F072
:01029C00223F
:10108A00EF30E004C2908002D290EF30E104C280D7
:10109A008002D280EF30E204C2918002D291EF3016
:0810AA00E303C28122D281227E
:0B09A700024A0000024C0000014E005C
:100D7A00054BE54B7002054AC39419E54A940040B5
:100D8A0039E4F54AF54B120006EF254DF54DEE35DF
:100D9A004CF54C054EC3E54E941074809480401A6D
:100DAA00E4F54EE54CC4F854F0C868F54CE54DC47A
:0A0DBA00540F48F54DE4F54CF54DDB
:010DC400220C
:09125F00C294756C00756D6422E7
:10113100D3E56D9400E56C94004010E56D156D707C
:0C11410002156CE56D456C7002D2942222
:0312AE000212B178
:0312B100D29222B4
:0312B400D29222B1
:0309B200016300DE
:020F6200A907DD
:100F6400E4FFEFC39950307E0FEED3940074809465
:100F74008040217DCAEDD394007480948040127C1B
:100F840051ECD394007480948040031C80F31D8042
:070F9400E41E80D50F80CBA5
:010F9B002233
:100E0F001212BDEF6401703753ACFE53ADFEC2B08A
:100E1F00539BFD43E90143E90243E90453EBFE53BE
:100E2F00EAFE53ECFE439B0243E90153E9FD43E91C
:100E3F004043EB2053ECDFD291D281D280D290127B
:090E4F0012B453E1FE43870222B4
:100D26005387FD53E8F043E80543B11053B2EFE4AF
:100D3600F5F643F62043E1011212BDEF640170316E
:100D4600FF1212BA43AC0153ADFE539BFD43E901BA
:100D560053E9FD43E94053EBDF53EADF53ECDF434E
:100D66009B0243E90143E90243E90443EB0153ECE7
:040D7600FE0212B1B6
:06127C00E4F565F56422B3
:1010F600EF14601214600B1460102403700FE4F5F3
:0E11060065227565022275650122756503225A
:0312B700AF6522FE
:0312BA008F63221D
:0312BD00AF6322FA
:100FFF00E5646565602AE56514601514600D14607D
:10100F00142403701BE4F5640212B1756402800DA1
:10101F0075640180087564037F011212BA120E0FF6
:01102F00229E
:05128200C2A8D2882281
:03000300020022D6
:0100220032AB
:10002600439B0243E90143E90243E90443EB0153DD
:03003600ECFE22BB
:03003B00020CD0E4
:100CD000C0E0C0F0C083C082C0D075D000C000C0EA
:100CE00001C002C003C004C005C006C007E5EC5443
:100CF0000164016008E5EC54206420700E53ECFEA2
:100D000053ECDF120D26E4FF1210F6D007D006D008
:100D100005D004D003D002D001D000D0D0D082D0F2
:060D200083D0F0D0E032A8
:1011F1008E6E8F6F0E7D020000DDFEDFF8DEF622BF
:1010B2008E538F54E4F555F556C3E5569554E555D0
:1010C200955350117FE87E031211F10556E55670D3
:0610D200E8055580E42250
:030000000205DE18
:1005DE00787FE4F6D8FD9000007FFF7E03E4F0A361
:0A05EE00DFFCDEFA75816F020633B0
:1005F800020C79E493A3F8E493A34003F68001F294
:1006080008DFF48029E493A3F85407240CC8C33303
:10061800C4540F4420C8834004F456800146F6DFD2
:10062800E4800B010204081020408090093BE47E1E
:10063800019360BCA3FF543F30E509541FFEE493C7
:10064800A360010ECF54C025E060A840B8E493A38E
:10065800FAE493A3F8E493A3C8C582C8CAC583CAB9
:10066800F0A3C8C582C8CAC583CADFE9DEE780BE71
:0109B5000041
:10052C00BB010689828A83E0225002E722BBFE02CD
:09053C00E32289828A83E4932200
:10054500BB010CE58229F582E5833AF583E022506B
:1005550006E92582F8E622BBFE06E92582F8E222B5
:0D056500E58229F582E5833AF583E49322CF
:10057200F8BB010DE58229F582E5833AF583E8F0BF
:10058200225006E92582C8F622BBFE05E92582C86B
:02059200F22253
:10059400BB010A89828A83E0F5F0A3E02250068732
:1005A400F009E71922BBFE07E3F5F009E3192289F4
:0B05B400828A83E493F5F07401932227
:1005BF00BB010A89828A83F0E5F0A3F0225006F787
:0F05CF0009A7F01922BBFE06F3E5F009F3192284
:00000001FF
